:020000040800F2
:10000000C80C00207D0100082D040008250400080C
:10001000290400081D040008B505000800000000C0
:10002000000000000000000000000000590400086B
:100030002104000800000000550400085D040008C9
:100040009701000897010008970100089701000830
:100050009701000897010008970100089701000820
:100060009701000897010008970100089701000810
:100070009701000897010008970100089701000800
:1000800097010008970100089701000897010008F0
:1000900097010008970100089701000897010008E0
:1000A00097010008970100089701000897010008D0
:1000B0009701000897010008970100083104000823
:1000C00097010008970100089701000897010008B0
:1000D00000F002F800F043F80AA090E8000C824417
:1000E0008344AAF10107DA4501D100F038F8AFF2F4
:1000F000090EBAE80F0013F0010F18BFFB1A43F006
:1001000001031847A02B0000C02B0000103A24BFA9
:1001100078C878C1FAD8520724BF30C830C144BF6C
:1001200004680C60704700000023002400250026AE
:10013000103A28BF78C1FBD8520728BF30C148BF4A
:100140000B6070471FB500F005F904000020002186
:1001500002F068FD401C60601FBD10B510BD00F0CE
:10016000D4F81146FFF7EEFF00F002FE00F004F9AC
:1001700003B4FFF7F2FF03BC00F048F909488047D9
:1001800009480047FEE7FEE7FEE7FEE7FEE7FEE779
:10019000FEE7FEE7FEE7FEE704480549054A064B91
:1001A0007047000061040008D1000008C806002064
:1001B000C80C0020C8080020C808002070B50646FA
:1001C00000F00CF80468054630460A22002100F0D1
:1001D00009F82C6070BD7047704770470048704741
:1001E000280100202DE9F04791460F46804604463D
:1001F000002614F8015B2DB100F030F80068405D76
:10020000C007F6D12B2D02D02D2D18D0641E4A46E2
:100210003946204600F02AF827B13968A14201D1B9
:10022000C7F800804FF0020471050BD5404200284A
:1002300003DDFFF7D3FF0460A007BDE8F08746F4B5
:100240008066E4E70028F8DAFFF7C8FF04606FF083
:100250000040F2E7004870472801002010B500F088
:1002600079F8001D10BD00BFBD2900002DE9F05F29
:10027000824615468B4600270AF10104B9460078EC
:10028000302801D09DB113E014F8010B0127782824
:1002900003D0582801D045B10AE00DB1102D07D187
:1002A000002714F8010B102502E0082500E00A25BC
:1002B0000026B0460EE005FB080005FB06F101270D
:1002C0001FFA80F801EB1046B6F5803F00D3B9461F
:1002D00014F8010B294600F041F80028EBDABBF1D5
:1002E000000F05D00FB1641E00E05446CBF800406B
:1002F000B9F1000F06D0FFF771FF02210160C81E9F
:10030000BDE8F09F48EA0640FAE77546FFF7A2FF0E
:10031000AE4605006946534620F00700854618B0F2
:1003200020B5FFF739FFBDE820404FF000064FF041
:1003300000074FF000084FF0000BAC46ACE8C009D6
:10034000ACE8C009ACE8C009ACE8C00921F007017D
:100350008D46704700487047480100203A2800D277
:10036000303820F02002412A01D3A2F13700884220
:1003700001D34FF0FF30704710B50446AFF3008053
:100380002046BDE81040FFF7F3BE0000000000006B
:1003900030B44FF0013C50F8042B51F8043BCCFA38
:1003A00052F4D51A20D1FCB950F8042B51F8043B73
:1003B000CCFA52F4D51A17D1B4B950F8042B51F82D
:1003C000043BCCFA52F4D51A0ED16CB950F8042B78
:1003D00051F8043BCCFA52F4D51A05D1002CDAD0EE
:1003E00030BC4FF00000704729BAB1FA81F111F02A
:1003F0001801D1F120008440F2D1CA40CB4012F064
:10040000FF0213F0FF0330BCD01A704701491820D7
:10041000ABBEFEE72600020070470000FEE70000CA
:1004200070470000FEE70000FEE700007047000094
:1004300080B54FF4802000F041FB18B14FF48020CC
:1004400000F036FB40F2B430C2F20000BDE880405C
:1004500002F016BA704700007047000070470000B5
:1004600041F20000C4F20200016841F001010160A4
:1004700001688907FCD5416821F00301416000BF94
:10048000416811F00C0FFBD101684FF6FF72CFF6F7
:10049000F262114001600021416041F61071C162B9
:1004A0004FF4801101634FF41F0181604EF6085034
:1004B000CEF200004FF0006101607047B0B5142427
:1004C000C4F6000400F0C0FD206820F01000206099
:1004D000032000F0A1FD206840F01000206020689B
:1004E00020F010002060402000F096FD206840F0D1
:1004F00010002060206820F010002060C02000F074
:100500008BFD0025002000F087FD0D2D05F1010574
:10051000F8D3206840F010002060206820F0100020
:100520002060802000F078FD206840F010002060FE
:10053000B0BD0000F0B581B01427C4F600070D4629
:100540003968064621F0100038600320144600F098
:1005500063FD386840F010003860386820F0100003
:100560003860402000F058FD386840F010003860D6
:10057000386820F010003860C02000F04DFD3DB11B
:10058000013E00BF16F8010F00F046FD013DF9D114
:10059000386840F010003860386820F0100038608B
:1005A000204600F039FD386840F01000386001B096
:1005B000F0BD0000FEE7000010B58121044601F007
:1005C00053FF2046012101F04FFF002010BD000025
:1005D000F0B581B0044640680021466A204602F02A
:1005E0009BF896F80C1109291AD1616883B24F6AF9
:1005F00053B107F13F0006F18B011A4611F8015F74
:10060000013A00F8015FF9D107F14002204681214B
:1006100001F0BAFF384600F0FDFB002086F80C011F
:10062000002001B0F0BD000000207047002070479E
:1006300000207047B0B5044640688121456A2046D5
:100640000322402301F020FF204601210322402302
:1006500001F01AFF204601212A46402301F036FF0F
:100660000020B0BDF0B581B005464068446A284618
:1006700002F052F8696886B24F6A4EB107F13F0046
:10068000611E324611F8013F013A00F8013FF9D1ED
:1006900007F1400228468121334601F075FF3846B4
:1006A00000F0B8FB284601212246334601F00EFF38
:1006B000002001B0F0BD000080B542680B78D2F890
:1006C00024C013F0600211D0202A2ED14A78013ABA
:1006D0000A2A40D8DFE802F00635383F3F3F3F3F67
:1006E000434D5200CA880CF1CC0130E04A780B2A05
:1006F0001FD00A2A22D0062A19D1CA78C988130223
:100700000922B3F5085F08BF20228A4228BF0A46A3
:1007100040F2600140F2D80CC2F20001C2F2000CBB
:10072000B3F5085F08BF614611E001F0E3FC00206B
:1007300080BD4888CCF88800002080BD0CF188017D
:1007400004E00CF1840101E00CF18001012201F0D0
:10075000BBFC002080BD01F0CDFC002080BD092243
:100760008CF80C21CA880CF18C0101F06BFC002084
:1007700080BDC878CCF88400002080BD8878CCF893
:100780008000002080BD00000020704710B50024CC
:10079000012808BF0A244FF080400021224600F0C3
:1007A000F7FE4FF0804002212246BDE8104000F0E5
:1007B000EFBE000041F20401C4F202010A6800F039
:1007C0000F0022F0F00242EA0010086070470000BB
:1007D00041F20401C4F202010A6800F0070022F4A9
:1007E000E06242EA002008607047000041F2040124
:1007F000C4F202010A6800F0070022F4605242EAE3
:10080000C020086070470000042888BF7047DFE8F8
:1008100000F0030C19262F0041F20000C4F2020080
:10082000026861F300020260704741F20000C4F206
:100830000200026801F0010122F4803242EA014123
:100840000160704741F20000C4F20200026801F04A
:10085000010122F0807242EA01610160704741F2B9
:100860000000C4F20200026A61F3000202627047F3
:1008700041F20000C4F20200426A61F300024262E7
:100880007047000041F20002010CC4F202028958D4
:1008900000F01F0021FA00F000F001007047000096
:1008A00041F200010020C4F2020100BF0A68920375
:1008B00004D4B0F5405F00F10100F7D30868C0F33D
:1008C0004040704741F2000200F01F034FF0010C5E
:1008D000C4F2020201290CFA03F14FEA10408358D6
:1008E00014BF23EA010119438150704741F2040209
:1008F000C4F20202136858B143F4803313601368E2
:1009000001280ED123F4003010604FF000700CE08D
:1009100023F480301060D06A40F00070D062002074
:1009200003E043F4003010600020136861F3954346
:1009300013601368090961F35E731360916A21F013
:10094000E06108439062704741F20000C4F2020087
:10095000016841F00101016001688907FCD5416827
:1009600021F00301416000BF416811F00C0FFBD181
:1009700001684FF6FF72CFF6F2621140016000216C
:10098000416041F61071C1624FF4801101634FF470
:100990001F0181607047000041F20401C4F20201AE
:1009A0000A6860F301020A607047000041F2040027
:1009B000C4F202000068C0F38100704741F20401F4
:1009C000C4F202010A6860F397520A600A6880085C
:1009D00060F3DB620A60704741F20400C4F2020077
:1009E000016C41F080410164016C21F0804101649F
:1009F00001680268C90E61F3DB6282F00062026086
:100A0000026861F3DB6202607047000080B5042079
:100A100000F0ECFC40F22010C2F2000000684DF63D
:100A20008361C4F21B31A0FB0101880C40F2A021BC
:100A3000C2F20001086008684FF47A71484340F23E
:100A40009C21C2F20001086080BD000080B5002832
:100A500008BF80BD4EF2100140F29C2ECEF2000184
:100A6000C2F2000E4FF0320C002300BF82B2332AD4
:100A700006D3DEF80020323802FB0CF24A6004E0B4
:100A8000DEF800005043486000208B600A6842F0A6
:100A900001020A600A6802F00112012AFAD00A680B
:100AA00022F001020A6002048B60DFD180BD0000E9
:100AB00040F21441C4F201010860704740F2144151
:100AC000C4F201010968084018BF01207047000006
:100AD00080B542F68640C0F6000040F2A42C0138F2
:100AE00044236FF00102C2F2000C4FF0000E00BF71
:100AF0000CEB02010B7183780232242A00F1010011
:100B000081F805E0F4D14FF44A70ACF8000040F2EF
:100B1000BC60C2F2000028210180C0F804C080BD82
:100B200040F20000C2F200007047000040F258009E
:100B3000C2F200007047000080B542F66F40C0F678
:100B4000000040F2A42C013844236FF00102C2F2ED
:100B5000000C4FF0000E00BF0CEB02010B7183780C
:100B600002322A2A00F1010081F805E0F4D140F2B6
:100B70002E30ACF8000040F2BC60C2F200002E2122
:100B80000180C0F804C080BD40F20C10C2F2000029
:100B90007047000080B542F69A40C0F6000040F26F
:100BA000A42C013844236FF00102C2F2000C4FF074
:100BB000000E00BF0CEB02010B71837802320E2A8B
:100BC00000F1010081F805E0F4D140F21230ACF8F8
:100BD000000040F2BC60C2F2000012210180C0F8A7
:100BE00004C080BD0020704780B542F66140C0F669
:100BF000000040F2A42C013843236FF00102C2F23E
:100C0000000C4FF0000E00BF0CEB02010B7183785B
:100C10000232182A00F1010081F805E0F4D14FF406
:100C20004770ACF8000040F2BC60C2F200001C212A
:100C30000180C0F804C080BD0020704770B54FF23D
:100C4000E870C1F6FF7001688268891831D0406889
:100C500040F2700C6FF00102C2F2000C4FF0370E40
:100C6000002300BF0CEB02050EEB1176B1F1204F13
:100C700002F102024FEA117438BF04F13006090193
:100C80000E2A2E716B71EDD10CF1100104224FF080
:100C9000370C00230CEB1075B0F1204F4FEA1076A3
:100CA00038BF06F1300501F8025F0001013A4B70D0
:100CB000F0D140F21410C2F2000070BD4FF6FF7187
:100CC0004FF08072C0E9001270470000F0B50A884A
:100CD000002A08BFF0BD00234FF0030C4FF0010EB7
:100CE000002405E0520804F1010403F1020326D0B8
:100CF000D507F7D005680CFA03F6B54305608D7982
:100D000007689D403D43056045680EFA04F7BD4302
:100D100045600D794768A5403D4345608568B5430A
:100D20008560CD7987689D403D438560C568B54342
:100D3000C5604D79C6689D403543C560D2E7F0BDBA
:100D400010B51C2303EA810E24234FF00F0C082951
:100D500038BF2023C4580CFA0EF124EA0101C15017
:100D6000C15802FA0EF21143C15010BDFFF7A6BBE5
:100D700084B000F08FFAFFF749FEFFF7F7FF03207A
:100D800000F03AF90C25C0F21405681D0121012478
:100D9000FFF798FD02A8FFF791FF28460121FFF712
:100DA00091FDFFF719FE40F22010C2F2000000682A
:100DB00046F60041C0F2DC2188420ED04DF600011B
:100DC000C0F2B851884207D04AF20021C0F24A412D
:100DD000884205D1002400E003242046FFF7EEFD01
:100DE0001F200021002200F0CDF840F2300540F233
:100DF000B43040F20803C2F20005C2F20000C2F2B1
:100E0000000301210022009501F0ECFC00F01EFA25
:100E1000FCE70000F0B581B040F2A434C2F2000457
:100E20000025A581C4E90055A560017841B3FF29DB
:100E30000CD14FF0FF30A081C4E90000A060204633
:100E40000E218F22FFF776FB012585E010F8011BAC
:100E500001F0FE012829F9D1054615F8011B40F2E1
:100E600088172829C2F2000702D1FFF7A7F93870C6
:100E700015F8010C29280DD02C280BD00135F7E7E7
:100E800020460E218F22A581C4E90055A560FFF7F9
:100E900051FB61E02846FFF791F948F21F51C5F276
:100EA000EB1150FB01F14A1102EBD17146F267627E
:100EB000C6F2666251FB02F39E1006EBD37303EB9E
:100EC0008303A1EB430150FB02F39E1006EBD373A7
:100ED00053FB02F2961006EBD27202EB8202A3EBF6
:100EE000420203EB8303A0EB43000023EE5C292EB8
:100EF00009D0432E05D0462E01D00133F6E7012359
:100F000000E0022323723F784CF6CD43CCF6CC436D
:100F1000A7FB03363309142F38BF0123062B22BF4A
:100F20001F272770053B42F65B47C0F60007FB5CB6
:100F300023700B0642F65043C0F6000302D0CFB236
:100F4000DF5DA7701143090602D0D1B2595C21714F
:100F5000C0B2185C0125A07100F054FA2846FFF7D2
:100F600015FC40F2A430C2F200000E218F22FFF7E0
:100F7000E1FA40F21C10C2F2000041F28831018017
:100F800001B0F0BDB0B54EF60C5ECEF2000EDEF84C
:100F900000304FF0FF35C3F3022383F00704042C25
:100FA00028BF0424033B05FA04F438BF0023A143FF
:100FB000994005FA03F39A4300F00F03043B4EF205
:100FC000001C7344CEF2000C11430C33B0F1FF3F10
:100FD0004FEA011100EB0C02C8BF02F54073002874
:100FE000197048BFB0BD00F01F01012202FA01F1E3
:100FF00040094CF82010B0BD4EF60C51CEF2000165
:101000000A684FF6FF031A4060F30A2242F080603C
:1010100040F0FD700860704710B543F20004C4F260
:1010200001040146204600F077F800BF2046022167
:1010300000F074F80028F9D02046802100F06EF806
:101040000128F9D010BD0000B0B582B01120C0F267
:1010500014000121FFF736FC6C462046FFF72EFEF8
:101060004FF081700190202000904FF09040214679
:10107000FFF72CFE4FF40070ADF8050080200090C3
:101080004FF090402146FFF721FE40F20110ADF8ED
:101090000500102000904FF090402146FFF716FE0B
:1010A0001420C4F60000016841F0100101600C201A
:1010B000C0F218000121FFF705FC6C46204600F045
:1010C00019F840F20310C0F20610009040F2001030
:1010D00043F20005C0F20110C4F201050190284658
:1010E000214600F021F82846012100F00BF802B05B
:1010F000B0BD00000021C0F8031001600121C171E2
:1011000070470000026801F0010122F0400242EA4B
:101110008111016070470000C1607047806808401D
:1011200018BF012070470000C26922F40062C2614A
:101130000A78032A27D8DFE802F00206121A0268AA
:1011400022F400420EE0026822F4004202600268CB
:1011500022F480420260026842F4806212E0026877
:1011600042F400420260026822F4804206E0026813
:1011700042F400420260026842F480420260026867
:1011800022F480620260CA79036802F0010223F44B
:10119000007343EA422202604A78012A06D1CA79E2
:1011A000012A03D1026842F4807202E0026822F44C
:1011B000807202604A78036862F3820303608B786E
:1011C000072B0CD8426822F400724260426822F475
:1011D000807242608B78026863F3C50218E042684F
:1011E0000A2B0AD142F400724260426822F48072F3
:1011F0004260026822F038020AE022F40072426083
:10120000426842F4807242608B78026863F3C502E0
:101210000260CA78036802F0010223F0800343EA07
:10122000C21202600A79036802F0010223F400632B
:1012300043EAC22202604A79036862F34103036011
:101240008979026861F300020260704710B540F2CC
:101250001C14C2F200042088013820800120FFF70E
:10126000F5FB2088002818BF10BD41F2883020808F
:1012700040F2A430C2F200000021C0E900118160F8
:1012800081810E218F22FFF755F90020BDE8104023
:10129000FFF77CBA80B542F20000C4F202004FF4BE
:1012A000A9710160FFF750FB01200121FFF7ACFAA3
:1012B000FFF7F6FA0028FBD001200A21FFF716FB02
:1012C00002200121FFF7A0FA1920FFF7DBFA01281D
:1012D000FAD10020FFF76EFA0020FFF787FA00200E
:1012E000FFF776FA0220FFF757FB00BFFFF75EFB20
:1012F0000228FBD1BDE88040AFF30080B0B541F2D9
:10130000040441F20025C4F20204C0F27A05FFF79A
:101310004DFB02280CD0002850D1206D80054DD502
:10132000E06A800144BF46F60045C0F2DC2545E096
:101330002068A16AC0F3004C00291AD421682268F1
:10134000C1F38341C2F341721301581C0F290346B4
:1013500018BF0223002A18BF0346BCF1000F03EB9D
:10136000010020D140F60011C0F23D0100FB01F563
:1013700024E0A06AA36AC0F3031EA06A40F600112D
:10138000C0F23D01C3F30823BCF1000F00F00700D9
:1013900003D02268920358BF294659430EFA00F041
:1013A000B1FBF0F50AE02168890301D4454305E06B
:1013B00040F60011C0F23D0100FB01F540F22010A3
:1013C000C2F200000560216804A2C1F30311515C60
:1013D000026822FA01F10160B0BD00BF0000000008
:1013E0000000000001020304060708094EF2100184
:1013F000CEF200010A68042822F0040208BF043279
:101400000A60704770B584B04FF4E01001210125E7
:10141000FFF758FA1120C0F214000121FFF752FA29
:1014200002AC2046FFF74AFC0F2002904FF081707B
:1014300003904FF090402146FFF748FC4FF090405A
:10144000002102220026FFF77BFC4FF09040012193
:101450000222FFF775FC4FF0904002210222FFF7B5
:101460006FFC4FF0904003210222FFF769FC40F22D
:101470002010C2F20000006849F68171C1F25E617D
:10148000A0FB01014FF0FF3000EB515082B24FF052
:10149000804040F2992100F073F84FF08040002125
:1014A00000F092F84FF08040002100F083F86C4685
:1014B000204600F045F90620ADF800004FF08040CE
:1014C000002122468DF803608DF8055000F0BAF82F
:1014D0004FF080400021002200F05AF84FF0804089
:1014E0000021012200F080F84FF0804002212246C6
:1014F00000F0A8F84FF0804002214FF47A7200F01B
:1015000047F84FF080400221012200F06DF84FF0C3
:1015100080400421224600F095F84FF080400421DD
:101520004FF47A7200F034F84FF080400421012229
:1015300000F05AF84FF080400621224600F082F871
:101540004FF0804006214FF47A7200F021F84FF0FE
:1015500080400621012200F047F84FF08040012131
:1015600000F0F4F84FF08040012100F037F84FF020
:1015700080400021002200F00BF804B070BD000094
:10158000C1628262416941F001014161704700001E
:10159000062988BF7047DFE801F0040B060B080B33
:1015A0000A004263704782637047C26370470264F7
:1015B00070470000026801F0030122F4407242EA21
:1015C0000121016070470000026801F0070122F06C
:1015D000700242EA0111016070470000026861F385
:1015E0000002026070470000062988BF7047DFE8EC
:1015F00001F004270D2716271F00816902F0010260
:1016000021F0080141EAC20181617047816902F05D
:10161000010221F4006141EAC22181617047C16980
:1016200002F0010221F0080141EAC201C1617047E4
:10163000C16902F0010221F4006141EAC221C161E5
:10164000704700002DE9F0415378947801F1080EBD
:1016500001F1090C03FA0EFE04FA0CF54FF4007CBC
:1016600043680CFA01F4A34343604368ADB22B43D3
:1016700043604FF4807345688B4025EA0303436061
:1016800043681FFA8EF52B430629436024D8DFE810
:1016900001F004230A2314231A001378856963F3E5
:1016A0000615856118E01378856903F0070325F4B2
:1016B000E04545EA033383610EE01378C56963F3BF
:1016C0000615C56108E01378C56903F0070325F422
:1016D000E04545EA0333C36103244B0004EB410CAE
:1016E000D47892F804E05D1C04FA05F80EFA0CF4C4
:1016F0004FF0080C066A0CFA03F726EA0707A6B2B1
:101700003743012606FA05F5AF431FFA88F52F4344
:101710000762022505EB4101557992799D4002FA55
:1017200001F104229A4027EA020289B2114306FA23
:1017300003F29143AAB211430162BDE8F0810000B7
:101740000021C0F80310016070470000026801F03A
:10175000010122F0800242EAC111016070470000DD
:10176000D0F8041821F00201C0F8041870470000F6
:10177000D0F8041841F00201C0F8041870470000C6
:10178000D0F8001940F2FF729143C0F80019D0F868
:10179000041821F48071C0F8041870470021C0F8C3
:1017A000101BD0F8101B012262F3DC41C0F8101BA3
:1017B000D0F8101B182262F31201C0F8101BD0F8E9
:1017C000101B41F0C041C0F8101B70478A780B789D
:1017D000002A4FEA431214BF00F5306000F5106094
:1017E000135823F400131350CA7802F0FE02022AA1
:1017F00018BF704709784901425842F08052425060
:101800007047000080B58B7891F800C04FF48032AB
:10181000D0F81CE8002B08BF012202FA0CF24FF4AA
:1018200030632EEA020208BF4FF41063C0F81C2890
:10183000097818444901425822F40042425080BDC0
:1018400000EB4110C0F8082970470000D0F81028BC
:10185000D0F8343800EB4110CB40DB01DBB2D0F8DC
:10186000080943EA020108407047000080B591F87A
:1018700000E0BEF1000F02D04FF0000C10E08A68CB
:10188000082A08D0102A09D0202A0CBF4FF0010CDA
:101890004FF0000C04E04FF0030C01E04FF0020C9D
:1018A0008B78D0F81C288BB14FF4803303FA0EF3F9
:1018B0001A43C0F81C280A78CAB1D1F808C000EB56
:1018C000421202F5306E6FF3DF2C12E0012303FAAF
:1018D0000EF31A43C0F81C280A780AB3D1F808C0DE
:1018E00000EB421202F5106E6FF3DF2C1AE000F5E8
:1018F000306EDEF8002040F2FF739A436244CEF867
:1019000000200A7800F53060520191F803C0835836
:101910000CF0030C23F4402343EA8C4383501FE074
:1019200000F5106EDEF8002040F2FF739A43624427
:10193000CEF800200A7800F51060520191F803C03B
:1019400083580CF0030C23F4402343EA8C43835068
:1019500091F800C04FEA4C13C2586CF39952C25030
:101960000A785201835843F0805383500978490123
:10197000425842F40042425080BD000000EB41104A
:10198000C0F8082B7047000000EB4111D1F8081B8C
:10199000D0F81408084070478A780B78002A4FEA7C
:1019A000431210D000F530601358002B04D40244C9
:1019B000136823F08043136009784901425842F4C8
:1019C00000124250704700F510601358B3F1FF3F0A
:1019D000EDDCF1E7016940F6415241F0100101618F
:1019E0000021C0F2030200BF0369DB0658BF704745
:1019F000914201F10101F7D370470000026961F3E0
:101A00008A120261016940F6415241F020010161F0
:101A10000021C0F2030200BF03699B0658BF704754
:101A2000914201F10101F7D370470000D0F8181876
:101A3000D0F81C08084080B270470000D0F8181891
:101A4000D0F81C080840000C704700004161704746
:101A5000416980690840704740F640510022C0F259
:101A6000030100BF0369002B03D48A4202F1010283
:101A7000F8D9026942F00102026100220369DB0722
:101A800003D08A4202F10102F8D9816B41F480311E
:101A900081637047012A826914BF22EA0101114360
:101AA000816170474FF0A0407047000002290DD0BF
:101AB000012914D0002918BF7047C16821F00051D6
:101AC000C160C16841F08041C1607047C16821F0C8
:101AD0008041C160C16821F00051C1607047C16898
:101AE00021F08041C160C16841F00051C160704780
:101AF000816821F00101816070470000816841F038
:101B00000101816070470000D0F8001E21F0010142
:101B1000C0F8001E70470000002B08BF7047033359
:101B20004FEA930C0122BCF1010FA1F104014FF423
:101B3000805C88BF9A0800BF50F80C30013A41F829
:101B4000043FF9D170470000D0F8002801F07F0170
:101B500022F4FE6242EA0111C0F80018704700004A
:101B600041627047B0B5436AC1B1D0F828E0B1F125
:101B7000010C03EB1E4E0AD000F58073494200BFF2
:101B800053F8044F01314D1C0EEB144EF8D14EEAC0
:101B9000024100EB8C00C0F80411B0BD43EA0241E1
:101BA0008162B0BDD0F8001E41F00101C0F8001EF6
:101BB00070470000D0F8080800F0010070470000EE
:101BC0002DE9F04F81B02C2201FB020CD0F800A0CF
:101BD000644654F8145F2646274656F8102F57F8E7
:101BE000143FD01AA84238BF054600910AEB4113B2
:101BF000D3F81809EA1C80B2B0EB920F29D93868E3
:101C00003268824225D9009903F5106B0CF1200847
:101C10001FFA81F92568101AA84238BF0546D8F87E
:101C20000010ABB250464A4600F024F8D8F8000045
:101C300039682844C8F8000048193860DBF81800F3
:101C4000E91C80B2B0EB910F03D938683268824248
:101C5000E0D815B101B0BDE8F08FDAF83418009A79
:101C60000120904021EA0000CAF8340801B0BDE824
:101C7000F08F000010B5002B08BF10BD03F1030C5E
:101C80004FEA9C0E00F58054120301230439BEF183
:101C9000010F88BF4FEA9C0351F8040F013B10511C
:101CA000FAD110BD10B54BB201F07F012C240268AF
:101CB00011FB040000F5B674002B48BF00F10C04C2
:101CC00010462146FFF782FD0020607310BD000022
:101CD000B0B50D46044669B160684269002A08BF84
:101CE000B0BD94F8E402032822D120462946BDE87D
:101CF000B040104794F8E002022819D105F07F02A5
:101D00002C2012FB004084465CF8303F5CF81C1C21
:101D10008B420ED95D1A026A8D4238BF29468BB2BA
:101D200020460021CCF80050BDE8B04000F02CBCAB
:101D3000B0BD50F82C3F8B4219D12C2312FB03422B
:101D4000526B8A4213D3B4F8E2128A420FD20021B6
:101D50000160204600210022002300F015FC2046EF
:101D6000294600220023BDE8B04000F0AFBB606808
:101D7000C16829B194F8E402032801D120468847BC
:101D8000206894F86C210521D4F8743184F8E012AD
:101D900000EB42110022C4E96023C4F88821D1F885
:101DA000102B63F31202C1F8102B4FF6FF73D1F81A
:101DB000102BC0F2070303F160431A4002F5002222
:101DC000C1F8102B94F86F2101F53061012A0AD176
:101DD000D0F808080A68C0054FF0805058BF4FF08F
:101DE000005010430860086840F080600860086890
:101DF00040F000400860B0BDF0B581B0054601205C
:101E000085F8E402002608460F4685F8E66285E874
:101E10000E00FFF7ADFC0020002100BF2A182C3077
:101E200011735173B0F5B07F01F1010196735661E2
:101E3000C2E90866F2D1002001210022002300BF80
:101E4000AE182C3286F86C3186F86D31B2F5B07F61
:101E500003F1010386F86E11C6F87401C6E960004B
:101E6000EED13846FFF744FE3846FFF7F5FD384619
:101E700000210026FFF71AFE2868FFF745FED7F875
:101E80000008102120F4C050C7F80008D7F8000857
:101E900040F00300C7F800083846FFF7AFFD3846AA
:101EA000FFF798FD4FF0FF30C7F818084120C7F83A
:101EB0001C68C7F81068C7F8146800BF47F82060AE
:101EC00001304928FAD1284600F0E8FB07F51060F8
:101ED0000021FF22002305E02033B3F5807F31612C
:101EE000B2600ED0C458C618B4F1FF3FC150F3DC45
:101EF000346844F080443460346844F000643460F2
:101F0000EAE707F530600021FF22002306E000BF6A
:101F10002033B3F5807F3161B2600ED0C458C6184B
:101F2000B4F1FF3FC150F3DC346844F080443460C6
:101F3000346844F000643460EAE7D7F8100840F4ED
:101F40008070C7F810080020B8616FF08040786199
:101F500043F61C00C8F23C00B8612868FFF700FC9B
:101F60003846FFF7CBFD002001B0F0BD10B50446A8
:101F700061B160688269002A08BF10BD94F8E4026C
:101F8000032823D12046BDE81040104794F8E00212
:101F900003281BD101F07F002C2210FB0242D2F853
:101FA0007401D2F89031834211D9A3EB000E02F5EF
:101FB000C87CD2F88021864538BF704683B220465F
:101FC000CCF800E0BDE8104000F080BA10BD6068B9
:101FD000016909B1204688474FF0040C20460021D2
:101FE0000022002384F8E0C2BDE8104000F0CCBA23
:101FF00010B5044600F5337004F5357100F006FEA7
:10200000012084F8E00294F8CC02B4F8D21200F077
:102010001F000228A4F8E21209D001280CD00028E1
:1020200018BF10BD2046BDE8104000F075B820462E
:10203000BDE8104000F090B92046BDE8104000F027
:1020400003BC000080B5D0F800E090F86C314FF090
:10205000030C00F5C077C0E9642280F8E0C20EEB03
:1020600043134FF0000CD0F8742187E80610D3F822
:10207000101B62F31201C3F8101B4FF6FF72D3F866
:10208000101BC0F2070202F16042114001F500216D
:10209000C3F8101B90F86F01012803F530600AD1D6
:1020A000DEF808180268C9054FF0805158BF4FF09C
:1020B000005111430160016841F0806101600168D5
:1020C00041F00041016080BD13460A464FF0020C0A
:1020D0000021C0E90C3380F8E0C200F055BA0000DE
:1020E0004FF0040C00210022002380F8E0C200F031
:1020F0004BBA0000B0B50446006804F5B671FFF7AE
:102100004BFC2068012504F10C0184F87951FFF79C
:1021100043FC6576B0BD0000B0B5044690F8CC0233
:1021200004F5337110F0600F05D0606882682046B6
:1021300090470020B0BD94F8CD02092833D8DFE8DD
:1021400000F0051A323732476032718194F8E402A8
:1021500000F0FE00022840F0828094F8E70228B1E7
:10216000D4F8EC0240F00200C4F8EC0204F53B7134
:1021700020460222E1E094F8E40200F0FE0002288A
:102180006DD1B4F8CE02012810D1002084F8E70206
:10219000D4F8EC02626820F002009268C4F8EC0205
:1021A000204690470FE02046FFF7A4FF0020B0BD77
:1021B000B4F8CE020128F9D1606801228368204674
:1021C00084F8E72298472046FFF78AFF0020B0BD39
:1021D000B4F8D002002842D1B4F8D20200283ED18F
:1021E00094F8E40203283AD094F8CE0210F07F006D
:1021F00084F8E6024FF0020008BF012084F8E402F0
:10220000E1E7B4F8CE024FF0FF3202EB1022062ACB
:1022100025D8DFE802F004292D2424382400A06802
:10222000006823E0B4F8D202012818D194F8E4023F
:1022300003282DD0022812D1002004F53A7184F829
:10224000E80227E0B4F8D012B4F8CE0240F2B86544
:10225000C2F20005287011B9B4F8D212E9B12046D3
:10226000FFF748FF0020B0BDA0688068804753E0BA
:10227000C0B2052836D8DFE800F0033C3F424548AD
:10228000A068006943E02046FFF734FF002043E0E8
:1022900004F2E921204601224FE094F8E412C0B292
:1022A00003290CD00229DAD100283FF48CAF84F83E
:1022B000E90260680321026884F8E4120FE0002854
:1022C0003FD094F8E91281427FF47DAF60684168A5
:1022D0002046884760682978026884F8E912204619
:1022E000904770E760688268204690470020002190
:1022F0000FE0A06840690AE0A068806907E0A06874
:10230000C06904E0A068406A01E0A068006A8047F4
:10231000012100293FF44AAF00283FF447AF03886A
:10232000002B3FF443AFB4F8D222002A3FF43EAF73
:102330004168934238BF1A462046FFF7C5FE002089
:10234000B0BD6268022184F8E412516884F8E902A1
:102350002046884737E7000070B5044690F8CC0265
:10236000B4F8D06200F06000202804F5337504D181
:102370006068294682682046904794F8CD02032879
:102380000BD0012812D0F8B994F8E402032820D029
:10239000022819D1700611D14AE094F8E40203280A
:1023A0002FD0022810D1700608D141E094F8E40241
:1023B00003283AD0022807D1700639D0F1B220465E
:1023C00000F00EFC002070BD2046FFF793FE0020B9
:1023D00070BD06F07F002C2110FB014000F10C01C4
:1023E000320658BF00F5B671487B02220138B0FAB8
:1023F00080F0400941F8100F2046FFF765FE0020ED
:1024000070BDB4F8CE0230B916F07F0003D0F1B23F
:10241000204600F0E5FB6068294682682046904728
:102420002046FFF75DFE002070BDB4F8CE0208B173
:10243000002070BD7006F3D0F1B22046FFF732FCE9
:1024400060682946826820469047E9E710B504464F
:102450000068FFF7AFFB012818BF10BD2068BDE87A
:102460001040FFF79FBB00004AB201F07F012C2310
:1024700011FB0303006803F5B671002A48BF03F19E
:102480000C01FFF7BFB9000080B54FFA81FE84460A
:102490000068BEF1000F01F07F0E4FF02C011EFB13
:1024A00001CC06D44FF0010E0CF5B6718CF86EE13C
:1024B00005E00CF10C014FF0000E8CF80EE08B6083
:1024C000CA70BDE88040FFF7D1B9000070B511F0C7
:1024D0007F0E4FF02C011EFB0105D0F800C095F8CF
:1024E0006C1105F5C2740CEB411101F530614FF030
:1024F0000006C5F88021C5F88431C5F8886102D18D
:10250000D5F874212260D5F87431BEF1000F12D0D5
:10251000226882B11A44013AB2FBF3F40A4652F837
:10252000105F634363F312050023C1F6F87303EAF7
:10253000C443156007E00A4652F8104F63F31204D3
:1025400014604FF4002314686FF3DC4423431360DA
:102550002C221EFB020090F86F0101280AD1DCF842
:1025600008080A68C0054FF0805058BF4FF000506F
:1025700010430860086840F080600860086840F018
:102580000040086070BD00002DE9F041844601F074
:102590007F062C2116FB01C7BE4600681EF80C1FE3
:1025A00000EB4111F046744601F5106548F8142F10
:1025B00044F8183F4FF00002CEF81C20D3B17A69DE
:1025C00016B329699F186FF312011944013F29615D
:1025D000B7FBF2F2296962F3DC4129612C2116FB79
:1025E00001C1C97B012921D12969012262F35E71F0
:1025F00029611BE02A69012363F3DC422A612A690D
:102600006FF312022A6111E09A4238BF22602268F9
:102610002B6962F312032B612A69012363F3DC4205
:102620002A6122682C2316FB03C3DA622C2116FBD5
:1026300001C212F80F1F01290BD0216849B19EF881
:1026400000100123D0F8347803FA01F13943C0F8BF
:102650003418117801290AD1D0F808182B68C90557
:102660004FF0805158BF4FF000511943296029683D
:1026700041F080612960296841F0004129601178AA
:10268000012918BFBDE8F081D8F800109EF800209D
:102690002388BDE8F041FFF7EDBA000080B500687F
:1026A000B0F1A04F18BF80BD4FF0A0408021FFF7D0
:1026B00057FA4FF0A04000211822FFF753FA4FF0CD
:1026C000A04001211422FFF74DFA4FF0A040022153
:1026D0001422FFF747FA4FF0A04003211422FFF71E
:1026E00041FA4FF0A04004211422FFF73BFA4FF0CB
:1026F000A04005211422FFF735FA4FF0A040062133
:102700001422FFF72FFA4FF0A04007211422BDE852
:102710008040FFF727BA000001F07F012C2211FB57
:102720000200D0F8880170472DE9F04381B00568B8
:1027300080462846FFF77AF9002850D00646002741
:102740004FF0010904E000BF760807F1010746D009
:10275000F007F9D028463946FFF778F80446C00755
:102760000AD120071AD4E0061FD4600624D4A0079B
:1027700029D42006E8D52DE0D5F8340809FA07F168
:102780008843C5F83408284639460122FFF758F82F
:10279000F9B24046FFF79CFA2007E4D528463946AF
:1027A0000822FFF74DF8E006DFD52846394610220B
:1027B000FFF746F86006DAD5284639464022FFF78B
:1027C0003FF8A007D5D5284639460222FFF738F84A
:1027D0002006B9D540463946FFF7F2F9B4E701B013
:1027E000BDE8F083F0B581B0069E074610461C4652
:1027F0000D46FFF757F93860002087F8FF0287F889
:1028000001034020C0F24010C7F8F802082087F802
:10281000F45287F8FD52012D87F8F70204BF022019
:1028200087F8FC020120396887F80103886B22468B
:1028300040F4001088633968381D33460095FFF76F
:10284000DBFA002001B0F0BD10B5044690F8E402B8
:1028500003280AD1606804F53371826820469047E6
:10286000B4F8D20230B1002010BD2046FFF742FC80
:10287000002010BD2046FFF733FC002010BD0000F3
:102880002DE9F041054655F8048B06464046FFF712
:10289000DFF8D8F81410C90717D10746800716D4F7
:1028A00078031AD438031DD4F80420D4380728D468
:1028B000B80431D4F80653D4F80256D4B80261D41F
:1028C000B7F1FF3F00F385806AE0BDE8F081404644
:1028D0000221FFF7BBF87803E4D52846FFF724FF71
:1028E0003803E1D5284600F095F8F804DED52846EF
:1028F00000F0DEF840464FF48051FFF7A7F83807A4
:10290000D6D5B068C16909B1284688474046082134
:10291000FFF79CF8B804CDD574682046FEF730FF69
:10292000E068052161F38D20E06028460021002247
:102930004023FFF7A9FD2846802100224023FFF70E
:10294000A3FDB0684168012086F8E80209B1284675
:10295000884740464FF40051FFF778F8F806ABD5AA
:10296000284600F001F9F802A8D5B068026A12B151
:1029700028460521904740464FF48011FFF766F83E
:10298000B8029DD5B068026A12B128460621904768
:1029900040464FF40011FFF759F8B7F1FF3F18DC3C
:1029A0007068D0F8041821F00101C0F804187068AC
:1029B000FFF7AAF8B068026A96F8E90286F8E8021A
:1029C00012B128460321904740464FF00041FFF7DF
:1029D0003DF8380558BFBDE8F0812868D0F80808F0
:1029E000C0070FD096F8E80286F8E902042086F8BE
:1029F000E8022846FFF72AFDB068026A12B12846AD
:102A00000221904740464FF40061BDE8F041FFF7D6
:102A10001DB800002DE9F04381B0056880462846C6
:102A2000FFF70CF800283FD006464FF000090027BA
:102A300004E000BF760807F1010735D0F007F9D0B0
:102A400028463946FEF7A0FF0446C00708D02846AE
:102A500039460122FEF792FFF9B24046FFF786FAA7
:102A6000200719D5284639460822FEF787FFF9B214
:102A70004046FFF7BDFA98F8E60268B1D8F80010B2
:102A800000F07F00D1F8002822F4FE6242EA001034
:102A9000C1F8000888F8E692E006CBD5284639460A
:102AA0001022FEF76BFFC5E701B0BDE8F083000020
:102AB000B0B505680446D5F8040820F00100C5F853
:102AC00004082046FFF7EAFD28461021FEF796FF8E
:102AD0006FF0FF00FF2100BF2A182030C2F8081A4B
:102AE000C2F8081CF8D14FF0FF30C5F818084FF0B5
:102AF0000110C5F81C08D5F81408002140F00100A9
:102B0000C5F81408D5F8140840F00200C5F81408F8
:102B1000D5F8140840F00800C5F81408D5F81008D6
:102B200040F00100C5F81008D5F8100840F0020088
:102B3000C5F81008D5F8100840F00800C5F81008CE
:102B40002846FFF701F82846FEF728FE6068026A6B
:102B50000120002A84F8E40208BFB0BD204601210C
:102B6000BDE8B040104700002DE9F041046805467B
:102B7000204610210022FEF78DFF216AC1F3434059
:102B8000C1F30A16062801F00F0712D002281FD140
:102B9000F6B12C2017FB0058D8F8801120463A4691
:102BA0003346FEF7B9FFD8F880013044C8F88001F9
:102BB00006E005F5357120463A463346FEF7ACFF90
:102BC0002C2017FB0050D0F888113144C0F8881130
:102BD000204610210122BDE8F041FEF75BBF000056
:102BE00010B54BB201F07F012C24026811FB0400E8
:102BF00000F5B674002B48BF00F10C0410462146C6
:102C0000FEF7CAFE0120607310BD00000A78027052
:102C10004A7842704A8842808A888280C988C18006
:102C20007047000010B500290AD00878002807D0A6
:102C300005487844FDF7ACFB002801D0002010BD0A
:102C40000248784410BD0000920000008A00000095
:102C50003F065B4F666D7D077F6F00000103070F26
:102C60001F43483531302D4449474954414C0044B5
:102C7000656570436F6F6C2048494420496E7465E8
:102C800072666163650044656570436F6F6C2048D0
:102C9000494420436F6E6669670044656570436F01
:102CA0006F6C0000D82D00080000002028010000F3
:102CB0000C010008002F000828010020A00B0000D4
:102CC000280100081001000043000000F8FFFFFF8A
:102CD000004040404040404040404141414141402F
:102CE00040404040404040404040404040404040E4
:102CF0004005020202020202020202020202020273
:102D00000220202020202020202020020202020277
:102D100002029090909090901010101010101010CF
:102D200010101010101010101010101002020202DB
:102D3000020288888888888808080808080808081F
:102D4000080808080808080808080808020202021B
:102D50004000000000000000000000000000000033
:102D60000000000000000000000000000000000063
:102D70000000000000000000000000000000000053
:102D80000000000000000000000000000000000043
:102D90000000000000000000000000000000000033
:102DA0000000000000000000000000000000000023
:102DB0000000000000000000000000000000000013
:102DC0000000000000000000000000000000000003
:102DD0000000000000000000490000008C000020FE
:102DE00035060008B9050008B906000829060008DC
:102DF000D1050008310600086506000889070008AB
:102E00002D0600088C0100202D0B0008390C00084D
:102E1000210B0008E50B0008890B0008950B000842
:102E2000E90B00083D0C0008390B0008D10A000826
:102E300012000000F80000200921100100012220EA
:102E400000000000040309041A0300000000000051
:102E50000000000000000000000000000000000072
:102E60000000000009024900010100E0FA09040025
:102E700000020300000009211001000122200007C8
:102E800005810340000A0705010340000A00000015
:102E90000000000000000000000000000000000032
:102EA0000000000000000000000000000000000022
:102EB00006FF000901A101150025FF7508954009CD
:102EC00001810295400901910295010901B102C0F9
:102ED0001201000200000040D33400110002010280
:102EE00003010000040000006C0000201A00000034
:102EF000700000208813000000127A00000000001B
:04000005080000D11E
:00000001FF
